{
  "_format": "hh-sol-artifact-1",
  "contractName": "CrowdfundingPlatform",
  "sourceName": "contracts/CrowdfundingPlatform.sol",
  "abi": [
    {
      "inputs": [],
      "stateMutability": "nonpayable",
      "type": "constructor"
    },
    {
      "inputs": [
        {
          "internalType": "address",
          "name": "owner",
          "type": "address"
        }
      ],
      "name": "OwnableInvalidOwner",
      "type": "error"
    },
    {
      "inputs": [
        {
          "internalType": "address",
          "name": "account",
          "type": "address"
        }
      ],
      "name": "OwnableUnauthorizedAccount",
      "type": "error"
    },
    {
      "inputs": [],
      "name": "ReentrancyGuardReentrantCall",
      "type": "error"
    },
    {
      "anonymous": false,
      "inputs": [
        {
          "indexed": true,
          "internalType": "address",
          "name": "previousOwner",
          "type": "address"
        },
        {
          "indexed": true,
          "internalType": "address",
          "name": "newOwner",
          "type": "address"
        }
      ],
      "name": "OwnershipTransferred",
      "type": "event"
    },
    {
      "inputs": [
        {
          "internalType": "uint256",
          "name": "",
          "type": "uint256"
        }
      ],
      "name": "campaigns",
      "outputs": [
        {
          "internalType": "address payable",
          "name": "owner",
          "type": "address"
        },
        {
          "internalType": "string",
          "name": "title",
          "type": "string"
        },
        {
          "internalType": "string",
          "name": "description",
          "type": "string"
        },
        {
          "internalType": "uint256",
          "name": "target",
          "type": "uint256"
        },
        {
          "internalType": "uint256",
          "name": "deadline",
          "type": "uint256"
        },
        {
          "internalType": "uint256",
          "name": "amountCollected",
          "type": "uint256"
        },
        {
          "internalType": "string",
          "name": "image",
          "type": "string"
        }
      ],
      "stateMutability": "view",
      "type": "function"
    },
    {
      "inputs": [
        {
          "internalType": "string",
          "name": "_title",
          "type": "string"
        },
        {
          "internalType": "string",
          "name": "_description",
          "type": "string"
        },
        {
          "internalType": "uint256",
          "name": "_target",
          "type": "uint256"
        },
        {
          "internalType": "uint256",
          "name": "_deadline",
          "type": "uint256"
        },
        {
          "internalType": "string",
          "name": "_image",
          "type": "string"
        }
      ],
      "name": "createCampaign",
      "outputs": [],
      "stateMutability": "nonpayable",
      "type": "function"
    },
    {
      "inputs": [
        {
          "internalType": "uint256",
          "name": "_id",
          "type": "uint256"
        }
      ],
      "name": "donateToCampaign",
      "outputs": [],
      "stateMutability": "payable",
      "type": "function"
    },
    {
      "inputs": [
        {
          "internalType": "uint256",
          "name": "_id",
          "type": "uint256"
        }
      ],
      "name": "getCampaign",
      "outputs": [
        {
          "components": [
            {
              "internalType": "address payable",
              "name": "owner",
              "type": "address"
            },
            {
              "internalType": "string",
              "name": "title",
              "type": "string"
            },
            {
              "internalType": "string",
              "name": "description",
              "type": "string"
            },
            {
              "internalType": "uint256",
              "name": "target",
              "type": "uint256"
            },
            {
              "internalType": "uint256",
              "name": "deadline",
              "type": "uint256"
            },
            {
              "internalType": "uint256",
              "name": "amountCollected",
              "type": "uint256"
            },
            {
              "internalType": "string",
              "name": "image",
              "type": "string"
            },
            {
              "internalType": "address[]",
              "name": "donators",
              "type": "address[]"
            },
            {
              "internalType": "uint256[]",
              "name": "donations",
              "type": "uint256[]"
            }
          ],
          "internalType": "struct CrowdfundingPlatform.Campaign",
          "name": "",
          "type": "tuple"
        }
      ],
      "stateMutability": "view",
      "type": "function"
    },
    {
      "inputs": [],
      "name": "getCampaigns",
      "outputs": [
        {
          "components": [
            {
              "internalType": "address payable",
              "name": "owner",
              "type": "address"
            },
            {
              "internalType": "string",
              "name": "title",
              "type": "string"
            },
            {
              "internalType": "string",
              "name": "description",
              "type": "string"
            },
            {
              "internalType": "uint256",
              "name": "target",
              "type": "uint256"
            },
            {
              "internalType": "uint256",
              "name": "deadline",
              "type": "uint256"
            },
            {
              "internalType": "uint256",
              "name": "amountCollected",
              "type": "uint256"
            },
            {
              "internalType": "string",
              "name": "image",
              "type": "string"
            },
            {
              "internalType": "address[]",
              "name": "donators",
              "type": "address[]"
            },
            {
              "internalType": "uint256[]",
              "name": "donations",
              "type": "uint256[]"
            }
          ],
          "internalType": "struct CrowdfundingPlatform.Campaign[]",
          "name": "",
          "type": "tuple[]"
        }
      ],
      "stateMutability": "view",
      "type": "function"
    },
    {
      "inputs": [
        {
          "internalType": "uint256",
          "name": "_id",
          "type": "uint256"
        }
      ],
      "name": "getDonators",
      "outputs": [
        {
          "internalType": "address[]",
          "name": "",
          "type": "address[]"
        },
        {
          "internalType": "uint256[]",
          "name": "",
          "type": "uint256[]"
        }
      ],
      "stateMutability": "view",
      "type": "function"
    },
    {
      "inputs": [],
      "name": "numberOfCampaigns",
      "outputs": [
        {
          "internalType": "uint256",
          "name": "",
          "type": "uint256"
        }
      ],
      "stateMutability": "view",
      "type": "function"
    },
    {
      "inputs": [],
      "name": "owner",
      "outputs": [
        {
          "internalType": "address",
          "name": "",
          "type": "address"
        }
      ],
      "stateMutability": "view",
      "type": "function"
    },
    {
      "inputs": [],
      "name": "renounceOwnership",
      "outputs": [],
      "stateMutability": "nonpayable",
      "type": "function"
    },
    {
      "inputs": [
        {
          "internalType": "address",
          "name": "newOwner",
          "type": "address"
        }
      ],
      "name": "transferOwnership",
      "outputs": [],
      "stateMutability": "nonpayable",
      "type": "function"
    },
    {
      "inputs": [
        {
          "internalType": "uint256",
          "name": "_id",
          "type": "uint256"
        }
      ],
      "name": "withdrawFunds",
      "outputs": [],
      "stateMutability": "nonpayable",
      "type": "function"
    },
    {
      "stateMutability": "payable",
      "type": "receive"
    }
  ],
  "bytecode": "0x608060405260006003553480156200001657600080fd5b50336001600081905550600073ffffffffffffffffffffffffffffffffffffffff168173ffffffffffffffffffffffffffffffffffffffff1603620000955760006040517f1e4fbdf70000000000000000000000000000000000000000000000000000000081526004016200008c9190620001b8565b60405180910390fd5b620000a681620000ad60201b60201c565b50620001d5565b6000600160009054906101000a900473ffffffffffffffffffffffffffffffffffffffff16905081600160006101000a81548173ffffffffffffffffffffffffffffffffffffffff021916908373ffffffffffffffffffffffffffffffffffffffff1602179055508173ffffffffffffffffffffffffffffffffffffffff168173ffffffffffffffffffffffffffffffffffffffff167f8be0079c531659141344cd1fd0a4f28419497f9722a3daafe3b4186f6b6457e060405160405180910390a35050565b600073ffffffffffffffffffffffffffffffffffffffff82169050919050565b6000620001a08262000173565b9050919050565b620001b28162000193565b82525050565b6000602082019050620001cf6000830184620001a7565b92915050565b6123c380620001e56000396000f3fe6080604052600436106100a05760003560e01c80635598f8cc116100645780635598f8cc1461019d578063715018a6146101da5780638da5cb5b146101f1578063a6b036331461021c578063d4e3dd6f14610247578063f2fde38b14610270576100a7565b806307ca140d146100ac5780630fa91fa9146100d7578063141961bc14610115578063155dd5ee1461015857806342a4fda814610181576100a7565b366100a757005b600080fd5b3480156100b857600080fd5b506100c1610299565b6040516100ce9190611391565b60405180910390f35b3480156100e357600080fd5b506100fe60048036038101906100f991906113ec565b61029f565b60405161010c9291906115c7565b60405180910390f35b34801561012157600080fd5b5061013c600480360381019061013791906113ec565b6103b1565b60405161014f97969594939291906116af565b60405180910390f35b34801561016457600080fd5b5061017f600480360381019061017a91906113ec565b6105ab565b005b61019b600480360381019061019691906113ec565b61072e565b005b3480156101a957600080fd5b506101c460048036038101906101bf91906113ec565b61084a565b6040516101d1919061194b565b60405180910390f35b3480156101e657600080fd5b506101ef610bcc565b005b3480156101fd57600080fd5b50610206610be0565b604051610213919061197c565b60405180910390f35b34801561022857600080fd5b50610231610c0a565b60405161023e9190611b3a565b60405180910390f35b34801561025357600080fd5b5061026e60048036038101906102699190611c91565b610fdb565b005b34801561027c57600080fd5b5061029760048036038101906102929190611d8c565b6110eb565b005b60035481565b60608060026000848152602001908152602001600020600701600260008581526020019081526020016000206008018180548060200260200160405190810160405280929190818152602001828054801561034f57602002820191906000526020600020905b8160009054906101000a900473ffffffffffffffffffffffffffffffffffffffff1673ffffffffffffffffffffffffffffffffffffffff1681526020019060010190808311610305575b50505050509150808054806020026020016040519081016040528092919081815260200182805480156103a157602002820191906000526020600020905b81548152602001906001019080831161038d575b5050505050905091509150915091565b60026020528060005260406000206000915090508060000160009054906101000a900473ffffffffffffffffffffffffffffffffffffffff16908060010180546103fa90611de8565b80601f016020809104026020016040519081016040528092919081815260200182805461042690611de8565b80156104735780601f1061044857610100808354040283529160200191610473565b820191906000526020600020905b81548152906001019060200180831161045657829003601f168201915b50505050509080600201805461048890611de8565b80601f01602080910402602001604051908101604052809291908181526020018280546104b490611de8565b80156105015780601f106104d657610100808354040283529160200191610501565b820191906000526020600020905b8154815290600101906020018083116104e457829003601f168201915b50505050509080600301549080600401549080600501549080600601805461052890611de8565b80601f016020809104026020016040519081016040528092919081815260200182805461055490611de8565b80156105a15780601f10610576576101008083540402835291602001916105a1565b820191906000526020600020905b81548152906001019060200180831161058457829003601f168201915b5050505050905087565b6105b3611171565b60006002600083815260200190815260200160002090508060000160009054906101000a900473ffffffffffffffffffffffffffffffffffffffff1673ffffffffffffffffffffffffffffffffffffffff163373ffffffffffffffffffffffffffffffffffffffff161461065c576040517f08c379a000000000000000000000000000000000000000000000000000000000815260040161065390611e65565b60405180910390fd5b60008160050154116106a3576040517f08c379a000000000000000000000000000000000000000000000000000000000815260040161069a90611ed1565b60405180910390fd5b600081600501549050600082600501819055508160000160009054906101000a900473ffffffffffffffffffffffffffffffffffffffff1673ffffffffffffffffffffffffffffffffffffffff166108fc829081150290604051600060405180830381858888f19350505050158015610720573d6000803e3d6000fd5b50505061072b6111b7565b50565b610736611171565b600060026000838152602001908152602001600020905080600401544210610793576040517f08c379a000000000000000000000000000000000000000000000000000000000815260040161078a90611f3d565b60405180910390fd5b80600701339080600181540180825580915050600190039060005260206000200160009091909190916101000a81548173ffffffffffffffffffffffffffffffffffffffff021916908373ffffffffffffffffffffffffffffffffffffffff16021790555080600801349080600181540180825580915050600190039060005260206000200160009091909190915055348160050160008282546108379190611f8c565b92505081905550506108476111b7565b50565b610852611316565b6003548210610896576040517f08c379a000000000000000000000000000000000000000000000000000000000815260040161088d9061200c565b60405180910390fd5b60026000838152602001908152602001600020604051806101200160405290816000820160009054906101000a900473ffffffffffffffffffffffffffffffffffffffff1673ffffffffffffffffffffffffffffffffffffffff1673ffffffffffffffffffffffffffffffffffffffff16815260200160018201805461091b90611de8565b80601f016020809104026020016040519081016040528092919081815260200182805461094790611de8565b80156109945780601f1061096957610100808354040283529160200191610994565b820191906000526020600020905b81548152906001019060200180831161097757829003601f168201915b505050505081526020016002820180546109ad90611de8565b80601f01602080910402602001604051908101604052809291908181526020018280546109d990611de8565b8015610a265780601f106109fb57610100808354040283529160200191610a26565b820191906000526020600020905b815481529060010190602001808311610a0957829003601f168201915b50505050508152602001600382015481526020016004820154815260200160058201548152602001600682018054610a5d90611de8565b80601f0160208091040260200160405190810160405280929190818152602001828054610a8990611de8565b8015610ad65780601f10610aab57610100808354040283529160200191610ad6565b820191906000526020600020905b815481529060010190602001808311610ab957829003601f168201915b5050505050815260200160078201805480602002602001604051908101604052809291908181526020018280548015610b6457602002820191906000526020600020905b8160009054906101000a900473ffffffffffffffffffffffffffffffffffffffff1673ffffffffffffffffffffffffffffffffffffffff1681526020019060010190808311610b1a575b5050505050815260200160088201805480602002602001604051908101604052809291908181526020018280548015610bbc57602002820191906000526020600020905b815481526020019060010190808311610ba8575b5050505050815250509050919050565b610bd46111c1565b610bde6000611248565b565b6000600160009054906101000a900473ffffffffffffffffffffffffffffffffffffffff16905090565b6060600060035467ffffffffffffffff811115610c2a57610c29611b66565b5b604051908082528060200260200182016040528015610c6357816020015b610c50611316565b815260200190600190039081610c485790505b50905060005b600354811015610fd35760026000828152602001908152602001600020604051806101200160405290816000820160009054906101000a900473ffffffffffffffffffffffffffffffffffffffff1673ffffffffffffffffffffffffffffffffffffffff1673ffffffffffffffffffffffffffffffffffffffff168152602001600182018054610cf890611de8565b80601f0160208091040260200160405190810160405280929190818152602001828054610d2490611de8565b8015610d715780601f10610d4657610100808354040283529160200191610d71565b820191906000526020600020905b815481529060010190602001808311610d5457829003601f168201915b50505050508152602001600282018054610d8a90611de8565b80601f0160208091040260200160405190810160405280929190818152602001828054610db690611de8565b8015610e035780601f10610dd857610100808354040283529160200191610e03565b820191906000526020600020905b815481529060010190602001808311610de657829003601f168201915b50505050508152602001600382015481526020016004820154815260200160058201548152602001600682018054610e3a90611de8565b80601f0160208091040260200160405190810160405280929190818152602001828054610e6690611de8565b8015610eb35780601f10610e8857610100808354040283529160200191610eb3565b820191906000526020600020905b815481529060010190602001808311610e9657829003601f168201915b5050505050815260200160078201805480602002602001604051908101604052809291908181526020018280548015610f4157602002820191906000526020600020905b8160009054906101000a900473ffffffffffffffffffffffffffffffffffffffff1673ffffffffffffffffffffffffffffffffffffffff1681526020019060010190808311610ef7575b5050505050815260200160088201805480602002602001604051908101604052809291908181526020018280548015610f9957602002820191906000526020600020905b815481526020019060010190808311610f85575b505050505081525050828281518110610fb557610fb461202c565b5b60200260200101819052508080610fcb9061205b565b915050610c69565b508091505090565b42821161101d576040517f08c379a0000000000000000000000000000000000000000000000000000000008152600401611014906120ef565b60405180910390fd5b60006002600060035481526020019081526020016000209050338160000160006101000a81548173ffffffffffffffffffffffffffffffffffffffff021916908373ffffffffffffffffffffffffffffffffffffffff1602179055508581600101908161108a91906122bb565b508481600201908161109c91906122bb565b5083816003018190555082816004018190555060008160050181905550818160060190816110ca91906122bb565b50600360008154809291906110de9061205b565b9190505550505050505050565b6110f36111c1565b600073ffffffffffffffffffffffffffffffffffffffff168173ffffffffffffffffffffffffffffffffffffffff16036111655760006040517f1e4fbdf700000000000000000000000000000000000000000000000000000000815260040161115c919061197c565b60405180910390fd5b61116e81611248565b50565b6002600054036111ad576040517f3ee5aeb500000000000000000000000000000000000000000000000000000000815260040160405180910390fd5b6002600081905550565b6001600081905550565b6111c961130e565b73ffffffffffffffffffffffffffffffffffffffff166111e7610be0565b73ffffffffffffffffffffffffffffffffffffffff16146112465761120a61130e565b6040517f118cdaa700000000000000000000000000000000000000000000000000000000815260040161123d919061197c565b60405180910390fd5b565b6000600160009054906101000a900473ffffffffffffffffffffffffffffffffffffffff16905081600160006101000a81548173ffffffffffffffffffffffffffffffffffffffff021916908373ffffffffffffffffffffffffffffffffffffffff1602179055508173ffffffffffffffffffffffffffffffffffffffff168173ffffffffffffffffffffffffffffffffffffffff167f8be0079c531659141344cd1fd0a4f28419497f9722a3daafe3b4186f6b6457e060405160405180910390a35050565b600033905090565b604051806101200160405280600073ffffffffffffffffffffffffffffffffffffffff16815260200160608152602001606081526020016000815260200160008152602001600081526020016060815260200160608152602001606081525090565b6000819050919050565b61138b81611378565b82525050565b60006020820190506113a66000830184611382565b92915050565b6000604051905090565b600080fd5b600080fd5b6113c981611378565b81146113d457600080fd5b50565b6000813590506113e6816113c0565b92915050565b600060208284031215611402576114016113b6565b5b6000611410848285016113d7565b91505092915050565b600081519050919050565b600082825260208201905092915050565b6000819050602082019050919050565b600073ffffffffffffffffffffffffffffffffffffffff82169050919050565b600061147082611445565b9050919050565b61148081611465565b82525050565b60006114928383611477565b60208301905092915050565b6000602082019050919050565b60006114b682611419565b6114c08185611424565b93506114cb83611435565b8060005b838110156114fc5781516114e38882611486565b97506114ee8361149e565b9250506001810190506114cf565b5085935050505092915050565b600081519050919050565b600082825260208201905092915050565b6000819050602082019050919050565b61153e81611378565b82525050565b60006115508383611535565b60208301905092915050565b6000602082019050919050565b600061157482611509565b61157e8185611514565b935061158983611525565b8060005b838110156115ba5781516115a18882611544565b97506115ac8361155c565b92505060018101905061158d565b5085935050505092915050565b600060408201905081810360008301526115e181856114ab565b905081810360208301526115f58184611569565b90509392505050565b600061160982611445565b9050919050565b611619816115fe565b82525050565b600081519050919050565b600082825260208201905092915050565b60005b8381101561165957808201518184015260208101905061163e565b60008484015250505050565b6000601f19601f8301169050919050565b60006116818261161f565b61168b818561162a565b935061169b81856020860161163b565b6116a481611665565b840191505092915050565b600060e0820190506116c4600083018a611610565b81810360208301526116d68189611676565b905081810360408301526116ea8188611676565b90506116f96060830187611382565b6117066080830186611382565b61171360a0830185611382565b81810360c08301526117258184611676565b905098975050505050505050565b61173c816115fe565b82525050565b600082825260208201905092915050565b600061175e8261161f565b6117688185611742565b935061177881856020860161163b565b61178181611665565b840191505092915050565b600082825260208201905092915050565b60006117a882611419565b6117b2818561178c565b93506117bd83611435565b8060005b838110156117ee5781516117d58882611486565b97506117e08361149e565b9250506001810190506117c1565b5085935050505092915050565b600082825260208201905092915050565b600061181782611509565b61182181856117fb565b935061182c83611525565b8060005b8381101561185d5781516118448882611544565b975061184f8361155c565b925050600181019050611830565b5085935050505092915050565b6000610120830160008301516118836000860182611733565b506020830151848203602086015261189b8282611753565b915050604083015184820360408601526118b58282611753565b91505060608301516118ca6060860182611535565b5060808301516118dd6080860182611535565b5060a08301516118f060a0860182611535565b5060c083015184820360c08601526119088282611753565b91505060e083015184820360e0860152611922828261179d565b91505061010083015184820361010086015261193e828261180c565b9150508091505092915050565b60006020820190508181036000830152611965818461186a565b905092915050565b61197681611465565b82525050565b6000602082019050611991600083018461196d565b92915050565b600081519050919050565b600082825260208201905092915050565b6000819050602082019050919050565b6000610120830160008301516119dc6000860182611733565b50602083015184820360208601526119f48282611753565b91505060408301518482036040860152611a0e8282611753565b9150506060830151611a236060860182611535565b506080830151611a366080860182611535565b5060a0830151611a4960a0860182611535565b5060c083015184820360c0860152611a618282611753565b91505060e083015184820360e0860152611a7b828261179d565b915050610100830151848203610100860152611a97828261180c565b9150508091505092915050565b6000611ab083836119c3565b905092915050565b6000602082019050919050565b6000611ad082611997565b611ada81856119a2565b935083602082028501611aec856119b3565b8060005b85811015611b285784840389528151611b098582611aa4565b9450611b1483611ab8565b925060208a01995050600181019050611af0565b50829750879550505050505092915050565b60006020820190508181036000830152611b548184611ac5565b905092915050565b600080fd5b600080fd5b7f4e487b7100000000000000000000000000000000000000000000000000000000600052604160045260246000fd5b611b9e82611665565b810181811067ffffffffffffffff82111715611bbd57611bbc611b66565b5b80604052505050565b6000611bd06113ac565b9050611bdc8282611b95565b919050565b600067ffffffffffffffff821115611bfc57611bfb611b66565b5b611c0582611665565b9050602081019050919050565b82818337600083830152505050565b6000611c34611c2f84611be1565b611bc6565b905082815260208101848484011115611c5057611c4f611b61565b5b611c5b848285611c12565b509392505050565b600082601f830112611c7857611c77611b5c565b5b8135611c88848260208601611c21565b91505092915050565b600080600080600060a08688031215611cad57611cac6113b6565b5b600086013567ffffffffffffffff811115611ccb57611cca6113bb565b5b611cd788828901611c63565b955050602086013567ffffffffffffffff811115611cf857611cf76113bb565b5b611d0488828901611c63565b9450506040611d15888289016113d7565b9350506060611d26888289016113d7565b925050608086013567ffffffffffffffff811115611d4757611d466113bb565b5b611d5388828901611c63565b9150509295509295909350565b611d6981611465565b8114611d7457600080fd5b50565b600081359050611d8681611d60565b92915050565b600060208284031215611da257611da16113b6565b5b6000611db084828501611d77565b91505092915050565b7f4e487b7100000000000000000000000000000000000000000000000000000000600052602260045260246000fd5b60006002820490506001821680611e0057607f821691505b602082108103611e1357611e12611db9565b5b50919050565b7f4e6f742063616d706169676e206f776e65720000000000000000000000000000600082015250565b6000611e4f60128361162a565b9150611e5a82611e19565b602082019050919050565b60006020820190508181036000830152611e7e81611e42565b9050919050565b7f4e6f2066756e647320746f207769746864726177000000000000000000000000600082015250565b6000611ebb60148361162a565b9150611ec682611e85565b602082019050919050565b60006020820190508181036000830152611eea81611eae565b9050919050565b7f43616d706169676e20656e646564000000000000000000000000000000000000600082015250565b6000611f27600e8361162a565b9150611f3282611ef1565b602082019050919050565b60006020820190508181036000830152611f5681611f1a565b9050919050565b7f4e487b7100000000000000000000000000000000000000000000000000000000600052601160045260246000fd5b6000611f9782611378565b9150611fa283611378565b9250828201905080821115611fba57611fb9611f5d565b5b92915050565b7f43616d706169676e20646f6573206e6f74206578697374000000000000000000600082015250565b6000611ff660178361162a565b915061200182611fc0565b602082019050919050565b6000602082019050818103600083015261202581611fe9565b9050919050565b7f4e487b7100000000000000000000000000000000000000000000000000000000600052603260045260246000fd5b600061206682611378565b91507fffffffffffffffffffffffffffffffffffffffffffffffffffffffffffffffff820361209857612097611f5d565b5b600182019050919050565b7f446561646c696e65206d75737420626520696e20746865206675747572650000600082015250565b60006120d9601e8361162a565b91506120e4826120a3565b602082019050919050565b60006020820190508181036000830152612108816120cc565b9050919050565b60008190508160005260206000209050919050565b60006020601f8301049050919050565b600082821b905092915050565b6000600883026121717fffffffffffffffffffffffffffffffffffffffffffffffffffffffffffffffff82612134565b61217b8683612134565b95508019841693508086168417925050509392505050565b6000819050919050565b60006121b86121b36121ae84611378565b612193565b611378565b9050919050565b6000819050919050565b6121d28361219d565b6121e66121de826121bf565b848454612141565b825550505050565b600090565b6121fb6121ee565b6122068184846121c9565b505050565b5b8181101561222a5761221f6000826121f3565b60018101905061220c565b5050565b601f82111561226f576122408161210f565b61224984612124565b81016020851015612258578190505b61226c61226485612124565b83018261220b565b50505b505050565b600082821c905092915050565b600061229260001984600802612274565b1980831691505092915050565b60006122ab8383612281565b9150826002028217905092915050565b6122c48261161f565b67ffffffffffffffff8111156122dd576122dc611b66565b5b6122e78254611de8565b6122f282828561222e565b600060209050601f8311600181146123255760008415612313578287015190505b61231d858261229f565b865550612385565b601f1984166123338661210f565b60005b8281101561235b57848901518255600182019150602085019450602081019050612336565b868310156123785784890151612374601f891682612281565b8355505b6001600288020188555050505b50505050505056fea2646970667358221220c390e12265a3763facfabe77f23b90f1b4dcf90458b5d0d37f0efa72ae1b8fae64736f6c63430008140033",
  "linkReferences": {},
  "deployedLinkReferences": {}
}